{
  "_format": "hh-sol-artifact-1",
  "contractName": "UniversalPayments",
  "sourceName": "contracts/UniversalPayments.sol",
  "abi": [
    {
      "inputs": [],
      "stateMutability": "nonpayable",
      "type": "constructor"
    },
    {
      "inputs": [
        {
          "internalType": "address",
          "name": "owner",
          "type": "address"
        }
      ],
      "name": "OwnableInvalidOwner",
      "type": "error"
    },
    {
      "inputs": [
        {
          "internalType": "address",
          "name": "account",
          "type": "address"
        }
      ],
      "name": "OwnableUnauthorizedAccount",
      "type": "error"
    },
    {
      "inputs": [],
      "name": "ReentrancyGuardReentrantCall",
      "type": "error"
    },
    {
      "anonymous": false,
      "inputs": [
        {
          "indexed": true,
          "internalType": "bytes32",
          "name": "groupId",
          "type": "bytes32"
        },
        {
          "indexed": true,
          "internalType": "address",
          "name": "initiator",
          "type": "address"
        },
        {
          "indexed": false,
          "internalType": "uint256",
          "name": "totalAmount",
          "type": "uint256"
        },
        {
          "indexed": false,
          "internalType": "uint256",
          "name": "splitAmount",
          "type": "uint256"
        },
        {
          "indexed": false,
          "internalType": "string",
          "name": "token",
          "type": "string"
        },
        {
          "indexed": false,
          "internalType": "uint256",
          "name": "participantCount",
          "type": "uint256"
        },
        {
          "indexed": false,
          "internalType": "string",
          "name": "description",
          "type": "string"
        },
        {
          "indexed": false,
          "internalType": "uint256",
          "name": "timestamp",
          "type": "uint256"
        }
      ],
      "name": "GroupPaymentCreated",
      "type": "event"
    },
    {
      "anonymous": false,
      "inputs": [
        {
          "indexed": true,
          "internalType": "address",
          "name": "previousOwner",
          "type": "address"
        },
        {
          "indexed": true,
          "internalType": "address",
          "name": "newOwner",
          "type": "address"
        }
      ],
      "name": "OwnershipTransferred",
      "type": "event"
    },
    {
      "anonymous": false,
      "inputs": [
        {
          "indexed": true,
          "internalType": "bytes32",
          "name": "paymentId",
          "type": "bytes32"
        },
        {
          "indexed": true,
          "internalType": "address",
          "name": "sender",
          "type": "address"
        },
        {
          "indexed": true,
          "internalType": "address",
          "name": "recipient",
          "type": "address"
        },
        {
          "indexed": false,
          "internalType": "uint256",
          "name": "amount",
          "type": "uint256"
        },
        {
          "indexed": false,
          "internalType": "string",
          "name": "token",
          "type": "string"
        },
        {
          "indexed": false,
          "internalType": "string",
          "name": "senderPhone",
          "type": "string"
        },
        {
          "indexed": false,
          "internalType": "string",
          "name": "recipientPhone",
          "type": "string"
        },
        {
          "indexed": false,
          "internalType": "string",
          "name": "message",
          "type": "string"
        },
        {
          "indexed": false,
          "internalType": "uint256",
          "name": "timestamp",
          "type": "uint256"
        }
      ],
      "name": "PaymentSent",
      "type": "event"
    },
    {
      "anonymous": false,
      "inputs": [
        {
          "indexed": true,
          "internalType": "address",
          "name": "user",
          "type": "address"
        },
        {
          "indexed": false,
          "internalType": "string",
          "name": "phoneNumber",
          "type": "string"
        },
        {
          "indexed": false,
          "internalType": "uint256",
          "name": "timestamp",
          "type": "uint256"
        }
      ],
      "name": "PhoneNumberRegistered",
      "type": "event"
    },
    {
      "anonymous": false,
      "inputs": [
        {
          "indexed": true,
          "internalType": "bytes32",
          "name": "refundId",
          "type": "bytes32"
        },
        {
          "indexed": true,
          "internalType": "bytes32",
          "name": "paymentId",
          "type": "bytes32"
        },
        {
          "indexed": true,
          "internalType": "address",
          "name": "recipient",
          "type": "address"
        },
        {
          "indexed": false,
          "internalType": "uint256",
          "name": "amount",
          "type": "uint256"
        },
        {
          "indexed": false,
          "internalType": "uint256",
          "name": "timestamp",
          "type": "uint256"
        }
      ],
      "name": "RefundProcessed",
      "type": "event"
    },
    {
      "anonymous": false,
      "inputs": [
        {
          "indexed": true,
          "internalType": "bytes32",
          "name": "refundId",
          "type": "bytes32"
        },
        {
          "indexed": true,
          "internalType": "bytes32",
          "name": "paymentId",
          "type": "bytes32"
        },
        {
          "indexed": true,
          "internalType": "address",
          "name": "requester",
          "type": "address"
        },
        {
          "indexed": false,
          "internalType": "uint256",
          "name": "amount",
          "type": "uint256"
        },
        {
          "indexed": false,
          "internalType": "string",
          "name": "reason",
          "type": "string"
        },
        {
          "indexed": false,
          "internalType": "uint256",
          "name": "timestamp",
          "type": "uint256"
        }
      ],
      "name": "RefundRequested",
      "type": "event"
    },
    {
      "inputs": [
        {
          "internalType": "string[]",
          "name": "_participantPhones",
          "type": "string[]"
        },
        {
          "internalType": "string",
          "name": "_description",
          "type": "string"
        }
      ],
      "name": "createGroupPayment",
      "outputs": [],
      "stateMutability": "payable",
      "type": "function"
    },
    {
      "inputs": [],
      "name": "emergencyWithdraw",
      "outputs": [],
      "stateMutability": "nonpayable",
      "type": "function"
    },
    {
      "inputs": [
        {
          "internalType": "string",
          "name": "_phoneNumber",
          "type": "string"
        }
      ],
      "name": "getAddressFromPhone",
      "outputs": [
        {
          "internalType": "address",
          "name": "",
          "type": "address"
        }
      ],
      "stateMutability": "view",
      "type": "function"
    },
    {
      "inputs": [
        {
          "internalType": "bytes32",
          "name": "_groupId",
          "type": "bytes32"
        }
      ],
      "name": "getGroupPayment",
      "outputs": [
        {
          "components": [
            {
              "internalType": "bytes32",
              "name": "id",
              "type": "bytes32"
            },
            {
              "internalType": "address",
              "name": "initiator",
              "type": "address"
            },
            {
              "internalType": "uint256",
              "name": "totalAmount",
              "type": "uint256"
            },
            {
              "internalType": "uint256",
              "name": "splitAmount",
              "type": "uint256"
            },
            {
              "internalType": "string",
              "name": "token",
              "type": "string"
            },
            {
              "internalType": "address[]",
              "name": "participants",
              "type": "address[]"
            },
            {
              "internalType": "string[]",
              "name": "participantPhones",
              "type": "string[]"
            },
            {
              "internalType": "uint256",
              "name": "timestamp",
              "type": "uint256"
            },
            {
              "internalType": "bool",
              "name": "isSettled",
              "type": "bool"
            },
            {
              "internalType": "string",
              "name": "description",
              "type": "string"
            }
          ],
          "internalType": "struct UniversalPayments.GroupPayment",
          "name": "",
          "type": "tuple"
        }
      ],
      "stateMutability": "view",
      "type": "function"
    },
    {
      "inputs": [
        {
          "internalType": "bytes32",
          "name": "_paymentId",
          "type": "bytes32"
        }
      ],
      "name": "getPayment",
      "outputs": [
        {
          "components": [
            {
              "internalType": "bytes32",
              "name": "id",
              "type": "bytes32"
            },
            {
              "internalType": "address",
              "name": "sender",
              "type": "address"
            },
            {
              "internalType": "address",
              "name": "recipient",
              "type": "address"
            },
            {
              "internalType": "uint256",
              "name": "amount",
              "type": "uint256"
            },
            {
              "internalType": "string",
              "name": "token",
              "type": "string"
            },
            {
              "internalType": "uint256",
              "name": "timestamp",
              "type": "uint256"
            },
            {
              "internalType": "bool",
              "name": "isRefunded",
              "type": "bool"
            },
            {
              "internalType": "string",
              "name": "senderPhone",
              "type": "string"
            },
            {
              "internalType": "string",
              "name": "recipientPhone",
              "type": "string"
            },
            {
              "internalType": "string",
              "name": "message",
              "type": "string"
            }
          ],
          "internalType": "struct UniversalPayments.Payment",
          "name": "",
          "type": "tuple"
        }
      ],
      "stateMutability": "view",
      "type": "function"
    },
    {
      "inputs": [
        {
          "internalType": "address",
          "name": "_user",
          "type": "address"
        }
      ],
      "name": "getPhoneNumber",
      "outputs": [
        {
          "internalType": "string",
          "name": "",
          "type": "string"
        }
      ],
      "stateMutability": "view",
      "type": "function"
    },
    {
      "inputs": [],
      "name": "getStats",
      "outputs": [
        {
          "internalType": "uint256",
          "name": "",
          "type": "uint256"
        },
        {
          "internalType": "uint256",
          "name": "",
          "type": "uint256"
        },
        {
          "internalType": "uint256",
          "name": "",
          "type": "uint256"
        }
      ],
      "stateMutability": "view",
      "type": "function"
    },
    {
      "inputs": [
        {
          "internalType": "address",
          "name": "_user",
          "type": "address"
        }
      ],
      "name": "getUserGroupPayments",
      "outputs": [
        {
          "internalType": "bytes32[]",
          "name": "",
          "type": "bytes32[]"
        }
      ],
      "stateMutability": "view",
      "type": "function"
    },
    {
      "inputs": [
        {
          "internalType": "address",
          "name": "_user",
          "type": "address"
        }
      ],
      "name": "getUserPayments",
      "outputs": [
        {
          "internalType": "bytes32[]",
          "name": "",
          "type": "bytes32[]"
        }
      ],
      "stateMutability": "view",
      "type": "function"
    },
    {
      "inputs": [
        {
          "internalType": "bytes32",
          "name": "",
          "type": "bytes32"
        }
      ],
      "name": "groupPayments",
      "outputs": [
        {
          "internalType": "bytes32",
          "name": "id",
          "type": "bytes32"
        },
        {
          "internalType": "address",
          "name": "initiator",
          "type": "address"
        },
        {
          "internalType": "uint256",
          "name": "totalAmount",
          "type": "uint256"
        },
        {
          "internalType": "uint256",
          "name": "splitAmount",
          "type": "uint256"
        },
        {
          "internalType": "string",
          "name": "token",
          "type": "string"
        },
        {
          "internalType": "uint256",
          "name": "timestamp",
          "type": "uint256"
        },
        {
          "internalType": "bool",
          "name": "isSettled",
          "type": "bool"
        },
        {
          "internalType": "string",
          "name": "description",
          "type": "string"
        }
      ],
      "stateMutability": "view",
      "type": "function"
    },
    {
      "inputs": [
        {
          "internalType": "string",
          "name": "_phoneNumber",
          "type": "string"
        }
      ],
      "name": "isPhoneRegistered",
      "outputs": [
        {
          "internalType": "bool",
          "name": "",
          "type": "bool"
        }
      ],
      "stateMutability": "view",
      "type": "function"
    },
    {
      "inputs": [],
      "name": "owner",
      "outputs": [
        {
          "internalType": "address",
          "name": "",
          "type": "address"
        }
      ],
      "stateMutability": "view",
      "type": "function"
    },
    {
      "inputs": [
        {
          "internalType": "bytes32",
          "name": "",
          "type": "bytes32"
        }
      ],
      "name": "payments",
      "outputs": [
        {
          "internalType": "bytes32",
          "name": "id",
          "type": "bytes32"
        },
        {
          "internalType": "address",
          "name": "sender",
          "type": "address"
        },
        {
          "internalType": "address",
          "name": "recipient",
          "type": "address"
        },
        {
          "internalType": "uint256",
          "name": "amount",
          "type": "uint256"
        },
        {
          "internalType": "string",
          "name": "token",
          "type": "string"
        },
        {
          "internalType": "uint256",
          "name": "timestamp",
          "type": "uint256"
        },
        {
          "internalType": "bool",
          "name": "isRefunded",
          "type": "bool"
        },
        {
          "internalType": "string",
          "name": "senderPhone",
          "type": "string"
        },
        {
          "internalType": "string",
          "name": "recipientPhone",
          "type": "string"
        },
        {
          "internalType": "string",
          "name": "message",
          "type": "string"
        }
      ],
      "stateMutability": "view",
      "type": "function"
    },
    {
      "inputs": [
        {
          "internalType": "address",
          "name": "",
          "type": "address"
        }
      ],
      "name": "phoneNumbers",
      "outputs": [
        {
          "internalType": "string",
          "name": "",
          "type": "string"
        }
      ],
      "stateMutability": "view",
      "type": "function"
    },
    {
      "inputs": [
        {
          "internalType": "string",
          "name": "",
          "type": "string"
        }
      ],
      "name": "phoneToAddress",
      "outputs": [
        {
          "internalType": "address",
          "name": "",
          "type": "address"
        }
      ],
      "stateMutability": "view",
      "type": "function"
    },
    {
      "inputs": [
        {
          "internalType": "bytes32",
          "name": "",
          "type": "bytes32"
        }
      ],
      "name": "refundRequests",
      "outputs": [
        {
          "internalType": "bytes32",
          "name": "paymentId",
          "type": "bytes32"
        },
        {
          "internalType": "address",
          "name": "requester",
          "type": "address"
        },
        {
          "internalType": "uint256",
          "name": "timestamp",
          "type": "uint256"
        },
        {
          "internalType": "bool",
          "name": "isProcessed",
          "type": "bool"
        },
        {
          "internalType": "string",
          "name": "reason",
          "type": "string"
        }
      ],
      "stateMutability": "view",
      "type": "function"
    },
    {
      "inputs": [
        {
          "internalType": "string",
          "name": "_phoneNumber",
          "type": "string"
        }
      ],
      "name": "registerPhoneNumber",
      "outputs": [],
      "stateMutability": "nonpayable",
      "type": "function"
    },
    {
      "inputs": [],
      "name": "renounceOwnership",
      "outputs": [],
      "stateMutability": "nonpayable",
      "type": "function"
    },
    {
      "inputs": [
        {
          "internalType": "bytes32",
          "name": "_paymentId",
          "type": "bytes32"
        },
        {
          "internalType": "string",
          "name": "_reason",
          "type": "string"
        }
      ],
      "name": "requestRefund",
      "outputs": [],
      "stateMutability": "nonpayable",
      "type": "function"
    },
    {
      "inputs": [
        {
          "internalType": "string",
          "name": "_recipientPhone",
          "type": "string"
        },
        {
          "internalType": "string",
          "name": "_message",
          "type": "string"
        }
      ],
      "name": "sendPaymentToPhone",
      "outputs": [],
      "stateMutability": "payable",
      "type": "function"
    },
    {
      "inputs": [
        {
          "internalType": "bytes32",
          "name": "_groupId",
          "type": "bytes32"
        }
      ],
      "name": "settleGroupPayment",
      "outputs": [],
      "stateMutability": "nonpayable",
      "type": "function"
    },
    {
      "inputs": [],
      "name": "totalGroupPayments",
      "outputs": [
        {
          "internalType": "uint256",
          "name": "",
          "type": "uint256"
        }
      ],
      "stateMutability": "view",
      "type": "function"
    },
    {
      "inputs": [],
      "name": "totalPayments",
      "outputs": [
        {
          "internalType": "uint256",
          "name": "",
          "type": "uint256"
        }
      ],
      "stateMutability": "view",
      "type": "function"
    },
    {
      "inputs": [],
      "name": "totalRefunds",
      "outputs": [
        {
          "internalType": "uint256",
          "name": "",
          "type": "uint256"
        }
      ],
      "stateMutability": "view",
      "type": "function"
    },
    {
      "inputs": [
        {
          "internalType": "address",
          "name": "newOwner",
          "type": "address"
        }
      ],
      "name": "transferOwnership",
      "outputs": [],
      "stateMutability": "nonpayable",
      "type": "function"
    },
    {
      "inputs": [
        {
          "internalType": "address",
          "name": "",
          "type": "address"
        },
        {
          "internalType": "uint256",
          "name": "",
          "type": "uint256"
        }
      ],
      "name": "userGroupPayments",
      "outputs": [
        {
          "internalType": "bytes32",
          "name": "",
          "type": "bytes32"
        }
      ],
      "stateMutability": "view",
      "type": "function"
    },
    {
      "inputs": [
        {
          "internalType": "address",
          "name": "",
          "type": "address"
        },
        {
          "internalType": "uint256",
          "name": "",
          "type": "uint256"
        }
      ],
      "name": "userPayments",
      "outputs": [
        {
          "internalType": "bytes32",
          "name": "",
          "type": "bytes32"
        }
      ],
      "stateMutability": "view",
      "type": "function"
    },
    {
      "stateMutability": "payable",
      "type": "receive"
    }
  ],
  "bytecode": "0x60806040523480156200001157600080fd5b50600160005533806200003e57604051631e4fbdf760e01b81526000600482015260240160405180910390fd5b620000498162000050565b50620000a2565b600180546001600160a01b038381166001600160a01b0319831681179093556040519116919082907f8be0079c531659141344cd1fd0a4f28419497f9722a3daafe3b4186f6b6457e090600090a35050565b6131c980620000b26000396000f3fe60806040526004361061019f5760003560e01c80639604de1a116100ec578063c59d48471161008a578063f08eb9ae11610064578063f08eb9ae14610530578063f1397dcb14610550578063f2fde38b14610566578063fcff8b281461058657600080fd5b8063c59d4847146104bd578063db2e21bc146104ee578063e66eefc81461050357600080fd5b80639fb09e45116100c65780639fb09e451461043a578063ab1cdd4e1461045a578063b05199bc1461048a578063b42040e2146104aa57600080fd5b80639604de1a146103cd5780639993b8ee146103ed5780639d7dadeb1461040d57600080fd5b80632b33cfcc11610159578063715018a611610133578063715018a61461035a5780637723c07c1461036f5780638cfeab351461038f5780638da5cb5b146103af57600080fd5b80632b33cfcc146102ee5780635ccf91bc146103225780635e6854941461034457600080fd5b80625b4487146101ab5780630716326d146101d45780631a8ce5ed1461020a5780631c7cb5f31461023b578063230e7c3214610268578063252c158f146102c157600080fd5b366101a657005b600080fd5b3480156101b757600080fd5b506101c160095481565b6040519081526020015b60405180910390f35b3480156101e057600080fd5b506101f46101ef366004612680565b610599565b6040516101cb9a999897969594939291906126e9565b34801561021657600080fd5b5061022a610225366004612680565b61081e565b6040516101cb959493929190612780565b34801561024757600080fd5b5061025b610256366004612680565b6108e5565b6040516101cb919061285c565b34801561027457600080fd5b506102a96102833660046129f0565b80516020818301810180516004825292820191909301209152546001600160a01b031681565b6040516001600160a01b0390911681526020016101cb565b3480156102cd57600080fd5b506102e16102dc366004612a49565b610c1e565b6040516101cb9190612a6b565b3480156102fa57600080fd5b5061030e610309366004612680565b610cca565b6040516101cb989796959493929190612a7e565b34801561032e57600080fd5b5061034261033d366004612ae3565b610e2f565b005b34801561035057600080fd5b506101c1600b5481565b34801561036657600080fd5b50610342611090565b34801561037b57600080fd5b506102e161038a366004612a49565b6110a4565b34801561039b57600080fd5b506101c16103aa366004612b2a565b61113e565b3480156103bb57600080fd5b506001546001600160a01b03166102a9565b3480156103d957600080fd5b506103426103e8366004612680565b61116f565b3480156103f957600080fd5b506101c1610408366004612b2a565b611372565b34801561041957600080fd5b5061042d610428366004612a49565b61138e565b6040516101cb9190612b54565b34801561044657600080fd5b506102a96104553660046129f0565b6113f9565b34801561046657600080fd5b5061047a6104753660046129f0565b61142a565b60405190151581526020016101cb565b34801561049657600080fd5b5061042d6104a5366004612a49565b611467565b6103426104b8366004612b98565b6114d1565b3480156104c957600080fd5b50600954600a54600b54604080519384526020840192909252908201526060016101cb565b3480156104fa57600080fd5b50610342611968565b34801561050f57600080fd5b5061052361051e366004612680565b6119a9565b6040516101cb9190612bf2565b34801561053c57600080fd5b5061034261054b3660046129f0565b611c4f565b34801561055c57600080fd5b506101c1600a5481565b34801561057257600080fd5b50610342610581366004612a49565b611e17565b610342610594366004612cce565b611e52565b60026020819052600091825260409091208054600182015492820154600383015460048401805493956001600160a01b03908116959316939192916105dd90612d9d565b80601f016020809104026020016040519081016040528092919081815260200182805461060990612d9d565b80156106565780601f1061062b57610100808354040283529160200191610656565b820191906000526020600020905b81548152906001019060200180831161063957829003601f168201915b50505050600583015460068401546007850180549495929460ff90921693509061067f90612d9d565b80601f01602080910402602001604051908101604052809291908181526020018280546106ab90612d9d565b80156106f85780601f106106cd576101008083540402835291602001916106f8565b820191906000526020600020905b8154815290600101906020018083116106db57829003601f168201915b50505050509080600801805461070d90612d9d565b80601f016020809104026020016040519081016040528092919081815260200182805461073990612d9d565b80156107865780601f1061075b57610100808354040283529160200191610786565b820191906000526020600020905b81548152906001019060200180831161076957829003601f168201915b50505050509080600901805461079b90612d9d565b80601f01602080910402602001604051908101604052809291908181526020018280546107c790612d9d565b80156108145780601f106107e957610100808354040283529160200191610814565b820191906000526020600020905b8154815290600101906020018083116107f757829003601f168201915b505050505090508a565b6006602052600090815260409020805460018201546002830154600384015460048501805494956001600160a01b0390941694929360ff9092169261086290612d9d565b80601f016020809104026020016040519081016040528092919081815260200182805461088e90612d9d565b80156108db5780601f106108b0576101008083540402835291602001916108db565b820191906000526020600020905b8154815290600101906020018083116108be57829003601f168201915b5050505050905085565b6109496040518061014001604052806000801916815260200160006001600160a01b03168152602001600081526020016000815260200160608152602001606081526020016060815260200160008152602001600015158152602001606081525090565b6000828152600560209081526040918290208251610140810184528154815260018201546001600160a01b031692810192909252600281015492820192909252600382015460608201526004820180549192916080840191906109ab90612d9d565b80601f01602080910402602001604051908101604052809291908181526020018280546109d790612d9d565b8015610a245780601f106109f957610100808354040283529160200191610a24565b820191906000526020600020905b815481529060010190602001808311610a0757829003601f168201915b5050505050815260200160058201805480602002602001604051908101604052809291908181526020018280548015610a8657602002820191906000526020600020905b81546001600160a01b03168152600190910190602001808311610a68575b5050505050815260200160068201805480602002602001604051908101604052809291908181526020016000905b82821015610b60578382906000526020600020018054610ad390612d9d565b80601f0160208091040260200160405190810160405280929190818152602001828054610aff90612d9d565b8015610b4c5780601f10610b2157610100808354040283529160200191610b4c565b820191906000526020600020905b815481529060010190602001808311610b2f57829003601f168201915b505050505081526020019060010190610ab4565b5050509082525060078201546020820152600882015460ff1615156040820152600982018054606090920191610b9590612d9d565b80601f0160208091040260200160405190810160405280929190818152602001828054610bc190612d9d565b8015610c0e5780601f10610be357610100808354040283529160200191610c0e565b820191906000526020600020905b815481529060010190602001808311610bf157829003601f168201915b5050505050815250509050919050565b6001600160a01b0381166000908152600360205260409020805460609190610c4590612d9d565b80601f0160208091040260200160405190810160405280929190818152602001828054610c7190612d9d565b8015610cbe5780601f10610c9357610100808354040283529160200191610cbe565b820191906000526020600020905b815481529060010190602001808311610ca157829003601f168201915b50505050509050919050565b6005602052600090815260409020805460018201546002830154600384015460048501805494956001600160a01b039094169492939192610d0a90612d9d565b80601f0160208091040260200160405190810160405280929190818152602001828054610d3690612d9d565b8015610d835780601f10610d5857610100808354040283529160200191610d83565b820191906000526020600020905b815481529060010190602001808311610d6657829003601f168201915b50505050600783015460088401546009850180549495929460ff909216935090610dac90612d9d565b80601f0160208091040260200160405190810160405280929190818152602001828054610dd890612d9d565b8015610e255780601f10610dfa57610100808354040283529160200191610e25565b820191906000526020600020905b815481529060010190602001808311610e0857829003601f168201915b5050505050905088565b600082815260026020526040902060018101546001600160a01b03163314610e9e5760405162461bcd60e51b815260206004820152601e60248201527f4f6e6c792073656e6465722063616e207265717565737420726566756e64000060448201526064015b60405180910390fd5b600681015460ff1615610eee5760405162461bcd60e51b815260206004820152601860248201527714185e5b595b9d08185b1c9958591e481c99599d5b99195960421b6044820152606401610e95565b6005810154610f009062015180612ded565b421115610f475760405162461bcd60e51b81526020600482015260156024820152741499599d5b99081c195c9a5bd908195e1c1a5c9959605a1b6044820152606401610e95565b600b5460408051602081018690526001600160601b03193360601b1691810191909152426054820152607481019190915260009060940160408051808303601f19018152828252805160209182012060a0840183528784523382850190815242858501908152600060608701818152608088018b815285835260069096529590208651815591516001830180546001600160a01b0319166001600160a01b03909216919091179055516002820155925160038401805460ff19169115159190911790559051909350600482019061101e9082612e55565b5050600b80549150600061103183612f15565b9190505550336001600160a01b031684827f6cfe0207feb8dba2b024c4a91da53448f8f7629e2865cc026a19890c5bfd7d018560030154874260405161107993929190612f2e565b60405180910390a461108a81612339565b50505050565b6110986124b4565b6110a260006124e1565b565b600360205260009081526040902080546110bd90612d9d565b80601f01602080910402602001604051908101604052809291908181526020018280546110e990612d9d565b80156111365780601f1061110b57610100808354040283529160200191611136565b820191906000526020600020905b81548152906001019060200180831161111957829003601f168201915b505050505081565b6007602052816000526040600020818154811061115a57600080fd5b90600052602060002001600091509150505481565b611177612533565b600081815260056020526040902060018101546001600160a01b031633146111e15760405162461bcd60e51b815260206004820152601960248201527f4f6e6c7920696e69746961746f722063616e20736574746c65000000000000006044820152606401610e95565b600881015460ff16156112285760405162461bcd60e51b815260206004820152600f60248201526e105b1c9958591e481cd95d1d1b1959608a1b6044820152606401610e95565b806002015447101561127c5760405162461bcd60e51b815260206004820152601d60248201527f496e73756666696369656e7420636f6e74726163742062616c616e63650000006044820152606401610e95565b60088101805460ff1916600117905560005b6005820154811015611306578160050181815481106112af576112af612f57565b600091825260208220015460038401546040516001600160a01b039092169281156108fc029290818181858888f193505050501580156112f3573d6000803e3d6000fd5b50806112fe81612f15565b91505061128e565b506005810154600382015460009161131d91612f6d565b826002015461132c9190612f84565b9050801561136357604051339082156108fc029083906000818181858888f19350505050158015611361573d6000803e3d6000fd5b505b505061136f6001600055565b50565b6008602052816000526040600020818154811061115a57600080fd5b6001600160a01b038116600090815260076020908152604091829020805483518184028101840190945280845260609392830182828015610cbe57602002820191906000526020600020905b8154815260200190600101908083116113da5750505050509050919050565b600060048260405161140b9190612f97565b908152604051908190036020019020546001600160a01b031692915050565b6000806001600160a01b03166004836040516114469190612f97565b908152604051908190036020019020546001600160a01b0316141592915050565b6001600160a01b038116600090815260086020908152604091829020805483518184028101840190945280845260609392830182828015610cbe57602002820191906000526020600020908154815260200190600101908083116113da5750505050509050919050565b6114d9612533565b600034116115295760405162461bcd60e51b815260206004820152601d60248201527f416d6f756e74206d7573742062652067726561746572207468616e20300000006044820152606401610e95565b600082511161157a5760405162461bcd60e51b815260206004820152601860248201527f526563697069656e742070686f6e6520726571756972656400000000000000006044820152606401610e95565b600060048360405161158c9190612f97565b908152604051908190036020019020546001600160a01b03169050806115f45760405162461bcd60e51b815260206004820152601860248201527f526563697069656e74206e6f74207265676973746572656400000000000000006044820152606401610e95565b336001600160a01b0382160361164c5760405162461bcd60e51b815260206004820152601760248201527f43616e6e6f742073656e6420746f20796f757273656c660000000000000000006044820152606401610e95565b6009546040516001600160601b031933606090811b8216602084015284901b166034820152346048820152426068820152608881019190915260009060a80160408051601f19818403018152828252805160209182012061014084018352808452338483018190526001600160a01b03871685850152346060860152835180850185526002815261504360f01b8185015260808601524260a0860152600060c086018190529081526003909252919020805491935060e083019161170f90612d9d565b80601f016020809104026020016040519081016040528092919081815260200182805461173b90612d9d565b80156117885780601f1061175d57610100808354040283529160200191611788565b820191906000526020600020905b81548152906001019060200180831161176b57829003601f168201915b505050918352505060208082018790526040918201869052600084815260028083529083902084518155918401516001830180546001600160a01b03199081166001600160a01b039384161790915593850151918301805490941691161790915560608201516003820155608082015160048201906118079082612e55565b5060a0820151600582015560c082015160068201805460ff191691151591909117905560e0820151600782019061183e9082612e55565b5061010082015160088201906118549082612e55565b50610120820151600982019061186a9082612e55565b5050336000908152600760209081526040808320805460018181018355918552838520018690556001600160a01b038716845290832080549182018155835290822001839055600980549250906118c083612f15565b90915550506040516001600160a01b038316903480156108fc02916000818181858888f193505050501580156118fa573d6000803e3d6000fd5b50336000818152600360205260409081902090516001600160a01b038516929184917fbc4678b59916cc3fcb616e145cc07c9fe19f5f628b59cf102952df575c157eac91611950913491908b908b904290612fb3565b60405180910390a450506119646001600055565b5050565b6119706124b4565b6001546040516001600160a01b03909116904780156108fc02916000818181858888f1935050505015801561136f573d6000803e3d6000fd5b611a166040518061014001604052806000801916815260200160006001600160a01b0316815260200160006001600160a01b031681526020016000815260200160608152602001600081526020016000151581526020016060815260200160608152602001606081525090565b6000828152600260208181526040928390208351610140810185528154815260018201546001600160a01b0390811693820193909352928101549091169282019290925260038201546060820152600482018054919291608084019190611a7c90612d9d565b80601f0160208091040260200160405190810160405280929190818152602001828054611aa890612d9d565b8015611af55780601f10611aca57610100808354040283529160200191611af5565b820191906000526020600020905b815481529060010190602001808311611ad857829003601f168201915b505050918352505060058201546020820152600682015460ff1615156040820152600782018054606090920191611b2b90612d9d565b80601f0160208091040260200160405190810160405280929190818152602001828054611b5790612d9d565b8015611ba45780601f10611b7957610100808354040283529160200191611ba4565b820191906000526020600020905b815481529060010190602001808311611b8757829003601f168201915b50505050508152602001600882018054611bbd90612d9d565b80601f0160208091040260200160405190810160405280929190818152602001828054611be990612d9d565b8015611c365780601f10611c0b57610100808354040283529160200191611c36565b820191906000526020600020905b815481529060010190602001808311611c1957829003601f168201915b50505050508152602001600982018054610b9590612d9d565b6000815111611ca05760405162461bcd60e51b815260206004820152601c60248201527f50686f6e65206e756d6265722063616e6e6f7420626520656d707479000000006044820152606401610e95565b60006001600160a01b0316600482604051611cbb9190612f97565b908152604051908190036020019020546001600160a01b031614611d215760405162461bcd60e51b815260206004820152601f60248201527f50686f6e65206e756d62657220616c72656164792072656769737465726564006044820152606401610e95565b3360009081526003602052604081208054611d3b90612d9d565b90501115611d805733600090815260036020526040908190209051600491611d6291613093565b90815260405190819003602001902080546001600160a01b03191690555b336000908152600360205260409020611d998282612e55565b5033600482604051611dab9190612f97565b90815260405190819003602001812080546001600160a01b03939093166001600160a01b03199093169290921790915533907f91e271c40ac93965bb231c0b672cf3c8c5fec8a9cee9708583858f09007ff8e790611e0c9084904290613109565b60405180910390a250565b611e1f6124b4565b6001600160a01b038116611e4957604051631e4fbdf760e01b815260006004820152602401610e95565b61136f816124e1565b611e5a612533565b60003411611eaa5760405162461bcd60e51b815260206004820152601d60248201527f416d6f756e74206d7573742062652067726561746572207468616e20300000006044820152606401610e95565b6000825111611ef35760405162461bcd60e51b815260206004820152601560248201527414185c9d1a58da5c185b9d1cc81c995c5d5a5c9959605a1b6044820152606401610e95565b601482511115611f455760405162461bcd60e51b815260206004820152601760248201527f4d6178696d756d203230207061727469636970616e74730000000000000000006044820152606401610e95565b6000825167ffffffffffffffff811115611f6157611f61612939565b604051908082528060200260200182016040528015611f8a578160200160208202803683370190505b50905060005b835181101561206a5760006004858381518110611faf57611faf612f57565b6020026020010151604051611fc49190612f97565b908152604051908190036020019020546001600160a01b031690508061202c5760405162461bcd60e51b815260206004820152601a60248201527f5061727469636970616e74206e6f7420726567697374657265640000000000006044820152606401610e95565b8083838151811061203f5761203f612f57565b6001600160a01b0390921660209283029190910190910152508061206281612f15565b915050611f90565b50600083513461207a919061312b565b9050600081116120c55760405162461bcd60e51b815260206004820152601660248201527514dc1b1a5d08185b5bdd5b9d081d1bdbc81cdb585b1b60521b6044820152606401610e95565b600a546040516001600160601b03193360601b166020820152346034820152426054820152607481019190915260009060940160408051808303601f1901815282825280516020918201206101408401835280845233828501908152348585019081526060860188815285518087018752600280825261504360f01b828801526080890191825260a089018c905260c089018e90524260e08a015260006101008a018190526101208a018e90528681526005909752969095208751815592516001840180546001600160a01b0319166001600160a01b0390921691909117905590519482019490945592516003840155905190935060048201906121c99082612e55565b5060a082015180516121e591600584019160209091019061255d565b5060c082015180516122019160068401916020909101906125c2565b5060e0820151600782015561010082015160088201805460ff1916911515919091179055610120820151600982019061223a9082612e55565b5050336000908152600860209081526040822080546001810182559083529082200183905590505b83518110156122cb576008600085838151811061228157612281612f57565b6020908102919091018101516001600160a01b03168252818101929092526040016000908120805460018101825590825291902001829055806122c381612f15565b915050612262565b50600a80549060006122dc83612f15565b9190505550336001600160a01b0316817f2a54d853677a70dd04b024a2ef7060f9bf9985ab92d8b2c30f56b725da4b196534858951894260405161232495949392919061314d565b60405180910390a35050506119646001600055565b6000818152600660205260409020600381015460ff161561239c5760405162461bcd60e51b815260206004820152601860248201527f526566756e6420616c72656164792070726f63657373656400000000000000006044820152606401610e95565b80546000908152600260205260409020600681015460ff16156123fc5760405162461bcd60e51b815260206004820152601860248201527714185e5b595b9d08185b1c9958591e481c99599d5b99195960421b6044820152606401610e95565b600681018054600160ff19918216811790925560038481018054909216831790915590820154908201546040516001600160a01b03909216916108fc82150291906000818181858888f1935050505015801561245c573d6000803e3d6000fd5b50600181015482546003830154604080519182524260208301526001600160a01b039093169286917fb208b6f1b9d7d79b46f81d7c52fa45764f0436f2875c5c160ed107e477a674ba910160405180910390a4505050565b6001546001600160a01b031633146110a25760405163118cdaa760e01b8152336004820152602401610e95565b600180546001600160a01b038381166001600160a01b0319831681179093556040519116919082907f8be0079c531659141344cd1fd0a4f28419497f9722a3daafe3b4186f6b6457e090600090a35050565b60026000540361255657604051633ee5aeb560e01b815260040160405180910390fd5b6002600055565b8280548282559060005260206000209081019282156125b2579160200282015b828111156125b257825182546001600160a01b0319166001600160a01b0390911617825560209092019160019091019061257d565b506125be929150612614565b5090565b828054828255906000526020600020908101928215612608579160200282015b8281111561260857825182906125f89082612e55565b50916020019190600101906125e2565b506125be929150612629565b5b808211156125be5760008155600101612615565b808211156125be57600061263d8282612646565b50600101612629565b50805461265290612d9d565b6000825580601f10612662575050565b601f01602090049060005260206000209081019061136f9190612614565b60006020828403121561269257600080fd5b5035919050565b60005b838110156126b457818101518382015260200161269c565b50506000910152565b600081518084526126d5816020860160208601612699565b601f01601f19169290920160200192915050565b8a81526001600160a01b038a811660208301528916604082015260608101889052610140608082018190526000906127238382018a6126bd565b90508760a084015286151560c084015282810360e084015261274581876126bd565b905082810361010084015261275a81866126bd565b905082810361012084015261276f81856126bd565b9d9c50505050505050505050505050565b85815260018060a01b0385166020820152836040820152821515606082015260a0608082015260006127b560a08301846126bd565b979650505050505050565b600081518084526020808501945080840160005b838110156127f95781516001600160a01b0316875295820195908201906001016127d4565b509495945050505050565b600082825180855260208086019550808260051b84010181860160005b8481101561284f57601f1986840301895261283d8383516126bd565b98840198925090830190600101612821565b5090979650505050505050565b60208152815160208201526000602083015161288360408401826001600160a01b03169052565b50604083015160608301526060830151608083015260808301516101408060a08501526128b46101608501836126bd565b915060a0850151601f19808685030160c08701526128d284836127c0565b935060c08701519150808685030160e08701526128ef8483612804565b60e08801516101008881019190915288015190945091506101206129168188018415159052565b87015186850390910183870152905061292f83826126bd565b9695505050505050565b634e487b7160e01b600052604160045260246000fd5b604051601f8201601f1916810167ffffffffffffffff8111828210171561297857612978612939565b604052919050565b600082601f83011261299157600080fd5b813567ffffffffffffffff8111156129ab576129ab612939565b6129be601f8201601f191660200161294f565b8181528460208386010111156129d357600080fd5b816020850160208301376000918101602001919091529392505050565b600060208284031215612a0257600080fd5b813567ffffffffffffffff811115612a1957600080fd5b612a2584828501612980565b949350505050565b80356001600160a01b0381168114612a4457600080fd5b919050565b600060208284031215612a5b57600080fd5b612a6482612a2d565b9392505050565b602081526000612a6460208301846126bd565b60006101008a835260018060a01b038a166020840152886040840152876060840152806080840152612ab2818401886126bd565b90508560a084015284151560c084015282810360e0840152612ad481856126bd565b9b9a5050505050505050505050565b60008060408385031215612af657600080fd5b82359150602083013567ffffffffffffffff811115612b1457600080fd5b612b2085828601612980565b9150509250929050565b60008060408385031215612b3d57600080fd5b612b4683612a2d565b946020939093013593505050565b6020808252825182820181905260009190848201906040850190845b81811015612b8c57835183529284019291840191600101612b70565b50909695505050505050565b60008060408385031215612bab57600080fd5b823567ffffffffffffffff80821115612bc357600080fd5b612bcf86838701612980565b93506020850135915080821115612be557600080fd5b50612b2085828601612980565b602081528151602082015260006020830151612c1960408401826001600160a01b03169052565b5060408301516001600160a01b0381166060840152506060830151608083015260808301516101408060a0850152612c556101608501836126bd565b915060a085015160c085015260c0850151612c7460e086018215159052565b5060e0850151601f19610100818786030181880152612c9385846126bd565b945080880151925050610120818786030181880152612cb285846126bd565b90880151878203909201848801529350905061292f83826126bd565b60008060408385031215612ce157600080fd5b823567ffffffffffffffff80821115612cf957600080fd5b818501915085601f830112612d0d57600080fd5b8135602082821115612d2157612d21612939565b8160051b612d3082820161294f565b928352848101820192828101908a851115612d4a57600080fd5b83870192505b84831015612d8657823586811115612d685760008081fd5b612d768c86838b0101612980565b8352509183019190830190612d50565b9750505086013592505080821115612be557600080fd5b600181811c90821680612db157607f821691505b602082108103612dd157634e487b7160e01b600052602260045260246000fd5b50919050565b634e487b7160e01b600052601160045260246000fd5b80820180821115612e0057612e00612dd7565b92915050565b601f821115612e5057600081815260208120601f850160051c81016020861015612e2d5750805b601f850160051c820191505b81811015612e4c57828155600101612e39565b5050505b505050565b815167ffffffffffffffff811115612e6f57612e6f612939565b612e8381612e7d8454612d9d565b84612e06565b602080601f831160018114612eb85760008415612ea05750858301515b600019600386901b1c1916600185901b178555612e4c565b600085815260208120601f198616915b82811015612ee757888601518255948401946001909101908401612ec8565b5085821015612f055787850151600019600388901b60f8161c191681555b5050505050600190811b01905550565b600060018201612f2757612f27612dd7565b5060010190565b838152606060208201526000612f4760608301856126bd565b9050826040830152949350505050565b634e487b7160e01b600052603260045260246000fd5b8082028115828204841417612e0057612e00612dd7565b81810381811115612e0057612e00612dd7565b60008251612fa9818460208701612699565b9190910192915050565b8581526000602060c081840152612fdc60c084016002815261504360f01b602082015260400190565b838103604085015260008854612ff181612d9d565b8084526001828116801561300c576001811461302657613054565b60ff1984168688015282151560051b860187019450613054565b8c6000528660002060005b8481101561304c5781548882018a0152908301908801613031565b870188019550505b50505050848103606086015261306a81896126bd565b92505050828103608084015261308081866126bd565b9150508260a08301529695505050505050565b60008083546130a181612d9d565b600182811680156130b957600181146130ce576130fd565b60ff19841687528215158302870194506130fd565b8760005260208060002060005b858110156130f45781548a8201529084019082016130db565b50505082870194505b50929695505050505050565b60408152600061311c60408301856126bd565b90508260208301529392505050565b60008261314857634e487b7160e01b600052601260045260246000fd5b500490565b85815284602082015260c06040820152600061317b60c083016002815261504360f01b602082015260400190565b856060840152828103608084015261308081866126bd56fea2646970667358221220b05b22f2b6577849785a269dd31aacad8f87c8aa1de433ec3acc75e7780f889e64736f6c63430008140033",
  "linkReferences": {},
  "deployedLinkReferences": {}
}