{
  "_format": "hh-sol-artifact-1",
  "contractName": "ChainSyncMarketplace",
  "sourceName": "contracts/ChainSyncMarketplace.sol",
  "abi": [
    {
      "inputs": [],
      "stateMutability": "nonpayable",
      "type": "constructor"
    },
    {
      "inputs": [],
      "name": "EnforcedPause",
      "type": "error"
    },
    {
      "inputs": [],
      "name": "ExpectedPause",
      "type": "error"
    },
    {
      "inputs": [
        {
          "internalType": "address",
          "name": "owner",
          "type": "address"
        }
      ],
      "name": "OwnableInvalidOwner",
      "type": "error"
    },
    {
      "inputs": [
        {
          "internalType": "address",
          "name": "account",
          "type": "address"
        }
      ],
      "name": "OwnableUnauthorizedAccount",
      "type": "error"
    },
    {
      "inputs": [],
      "name": "ReentrancyGuardReentrantCall",
      "type": "error"
    },
    {
      "anonymous": false,
      "inputs": [
        {
          "indexed": true,
          "internalType": "address",
          "name": "previousOwner",
          "type": "address"
        },
        {
          "indexed": true,
          "internalType": "address",
          "name": "newOwner",
          "type": "address"
        }
      ],
      "name": "OwnershipTransferred",
      "type": "event"
    },
    {
      "anonymous": false,
      "inputs": [
        {
          "indexed": false,
          "internalType": "address",
          "name": "account",
          "type": "address"
        }
      ],
      "name": "Paused",
      "type": "event"
    },
    {
      "anonymous": false,
      "inputs": [
        {
          "indexed": true,
          "internalType": "uint256",
          "name": "postId",
          "type": "uint256"
        },
        {
          "indexed": true,
          "internalType": "address",
          "name": "liker",
          "type": "address"
        },
        {
          "indexed": false,
          "internalType": "uint256",
          "name": "totalLikes",
          "type": "uint256"
        },
        {
          "indexed": false,
          "internalType": "uint256",
          "name": "timestamp",
          "type": "uint256"
        }
      ],
      "name": "PostLiked",
      "type": "event"
    },
    {
      "anonymous": false,
      "inputs": [
        {
          "indexed": true,
          "internalType": "uint256",
          "name": "productId",
          "type": "uint256"
        },
        {
          "indexed": true,
          "internalType": "address",
          "name": "seller",
          "type": "address"
        },
        {
          "indexed": false,
          "internalType": "string",
          "name": "title",
          "type": "string"
        },
        {
          "indexed": false,
          "internalType": "uint256",
          "name": "price",
          "type": "uint256"
        },
        {
          "indexed": false,
          "internalType": "string",
          "name": "category",
          "type": "string"
        },
        {
          "indexed": false,
          "internalType": "uint256",
          "name": "timestamp",
          "type": "uint256"
        }
      ],
      "name": "ProductListed",
      "type": "event"
    },
    {
      "anonymous": false,
      "inputs": [
        {
          "indexed": true,
          "internalType": "uint256",
          "name": "purchaseId",
          "type": "uint256"
        },
        {
          "indexed": true,
          "internalType": "uint256",
          "name": "productId",
          "type": "uint256"
        },
        {
          "indexed": true,
          "internalType": "address",
          "name": "buyer",
          "type": "address"
        },
        {
          "indexed": false,
          "internalType": "address",
          "name": "seller",
          "type": "address"
        },
        {
          "indexed": false,
          "internalType": "uint256",
          "name": "amount",
          "type": "uint256"
        },
        {
          "indexed": false,
          "internalType": "uint256",
          "name": "timestamp",
          "type": "uint256"
        }
      ],
      "name": "ProductPurchased",
      "type": "event"
    },
    {
      "anonymous": false,
      "inputs": [
        {
          "indexed": true,
          "internalType": "uint256",
          "name": "productId",
          "type": "uint256"
        },
        {
          "indexed": true,
          "internalType": "address",
          "name": "buyer",
          "type": "address"
        },
        {
          "indexed": false,
          "internalType": "uint8",
          "name": "rating",
          "type": "uint8"
        },
        {
          "indexed": false,
          "internalType": "string",
          "name": "review",
          "type": "string"
        },
        {
          "indexed": false,
          "internalType": "uint256",
          "name": "timestamp",
          "type": "uint256"
        }
      ],
      "name": "ProductRated",
      "type": "event"
    },
    {
      "anonymous": false,
      "inputs": [
        {
          "indexed": true,
          "internalType": "uint256",
          "name": "postId",
          "type": "uint256"
        },
        {
          "indexed": true,
          "internalType": "address",
          "name": "author",
          "type": "address"
        },
        {
          "indexed": false,
          "internalType": "uint256",
          "name": "productId",
          "type": "uint256"
        },
        {
          "indexed": false,
          "internalType": "string",
          "name": "content",
          "type": "string"
        },
        {
          "indexed": false,
          "internalType": "uint256",
          "name": "timestamp",
          "type": "uint256"
        }
      ],
      "name": "SocialPostCreated",
      "type": "event"
    },
    {
      "anonymous": false,
      "inputs": [
        {
          "indexed": false,
          "internalType": "address",
          "name": "account",
          "type": "address"
        }
      ],
      "name": "Unpaused",
      "type": "event"
    },
    {
      "anonymous": false,
      "inputs": [
        {
          "indexed": true,
          "internalType": "address",
          "name": "follower",
          "type": "address"
        },
        {
          "indexed": true,
          "internalType": "address",
          "name": "following",
          "type": "address"
        },
        {
          "indexed": false,
          "internalType": "uint256",
          "name": "timestamp",
          "type": "uint256"
        }
      ],
      "name": "UserFollowed",
      "type": "event"
    },
    {
      "anonymous": false,
      "inputs": [
        {
          "indexed": true,
          "internalType": "address",
          "name": "wallet",
          "type": "address"
        },
        {
          "indexed": false,
          "internalType": "string",
          "name": "telegramId",
          "type": "string"
        },
        {
          "indexed": false,
          "internalType": "string",
          "name": "username",
          "type": "string"
        },
        {
          "indexed": false,
          "internalType": "uint256",
          "name": "timestamp",
          "type": "uint256"
        }
      ],
      "name": "UserRegistered",
      "type": "event"
    },
    {
      "inputs": [],
      "name": "FEE_DENOMINATOR",
      "outputs": [
        {
          "internalType": "uint256",
          "name": "",
          "type": "uint256"
        }
      ],
      "stateMutability": "view",
      "type": "function"
    },
    {
      "inputs": [
        {
          "internalType": "uint256",
          "name": "_productId",
          "type": "uint256"
        },
        {
          "internalType": "string",
          "name": "_content",
          "type": "string"
        }
      ],
      "name": "createSocialPost",
      "outputs": [],
      "stateMutability": "nonpayable",
      "type": "function"
    },
    {
      "inputs": [],
      "name": "emergencyWithdraw",
      "outputs": [],
      "stateMutability": "nonpayable",
      "type": "function"
    },
    {
      "inputs": [],
      "name": "feeRecipient",
      "outputs": [
        {
          "internalType": "address",
          "name": "",
          "type": "address"
        }
      ],
      "stateMutability": "view",
      "type": "function"
    },
    {
      "inputs": [
        {
          "internalType": "address",
          "name": "_user",
          "type": "address"
        }
      ],
      "name": "followUser",
      "outputs": [],
      "stateMutability": "nonpayable",
      "type": "function"
    },
    {
      "inputs": [
        {
          "internalType": "address",
          "name": "",
          "type": "address"
        },
        {
          "internalType": "uint256",
          "name": "",
          "type": "uint256"
        }
      ],
      "name": "followers",
      "outputs": [
        {
          "internalType": "address",
          "name": "",
          "type": "address"
        }
      ],
      "stateMutability": "view",
      "type": "function"
    },
    {
      "inputs": [
        {
          "internalType": "address",
          "name": "",
          "type": "address"
        },
        {
          "internalType": "address",
          "name": "",
          "type": "address"
        }
      ],
      "name": "following",
      "outputs": [
        {
          "internalType": "bool",
          "name": "",
          "type": "bool"
        }
      ],
      "stateMutability": "view",
      "type": "function"
    },
    {
      "inputs": [
        {
          "internalType": "address",
          "name": "",
          "type": "address"
        },
        {
          "internalType": "uint256",
          "name": "",
          "type": "uint256"
        }
      ],
      "name": "followingList",
      "outputs": [
        {
          "internalType": "address",
          "name": "",
          "type": "address"
        }
      ],
      "stateMutability": "view",
      "type": "function"
    },
    {
      "inputs": [
        {
          "internalType": "uint256",
          "name": "_productId",
          "type": "uint256"
        }
      ],
      "name": "getProductRating",
      "outputs": [
        {
          "internalType": "uint256",
          "name": "",
          "type": "uint256"
        },
        {
          "internalType": "uint256",
          "name": "",
          "type": "uint256"
        }
      ],
      "stateMutability": "view",
      "type": "function"
    },
    {
      "inputs": [
        {
          "internalType": "address",
          "name": "_user",
          "type": "address"
        }
      ],
      "name": "getUserFollowers",
      "outputs": [
        {
          "internalType": "address[]",
          "name": "",
          "type": "address[]"
        }
      ],
      "stateMutability": "view",
      "type": "function"
    },
    {
      "inputs": [
        {
          "internalType": "address",
          "name": "_user",
          "type": "address"
        }
      ],
      "name": "getUserFollowing",
      "outputs": [
        {
          "internalType": "address[]",
          "name": "",
          "type": "address[]"
        }
      ],
      "stateMutability": "view",
      "type": "function"
    },
    {
      "inputs": [
        {
          "internalType": "address",
          "name": "_user",
          "type": "address"
        }
      ],
      "name": "getUserPosts",
      "outputs": [
        {
          "internalType": "uint256[]",
          "name": "",
          "type": "uint256[]"
        }
      ],
      "stateMutability": "view",
      "type": "function"
    },
    {
      "inputs": [
        {
          "internalType": "address",
          "name": "_user",
          "type": "address"
        }
      ],
      "name": "getUserProducts",
      "outputs": [
        {
          "internalType": "uint256[]",
          "name": "",
          "type": "uint256[]"
        }
      ],
      "stateMutability": "view",
      "type": "function"
    },
    {
      "inputs": [
        {
          "internalType": "address",
          "name": "_user",
          "type": "address"
        }
      ],
      "name": "getUserPurchases",
      "outputs": [
        {
          "internalType": "uint256[]",
          "name": "",
          "type": "uint256[]"
        }
      ],
      "stateMutability": "view",
      "type": "function"
    },
    {
      "inputs": [
        {
          "internalType": "string",
          "name": "_telegramId",
          "type": "string"
        }
      ],
      "name": "getWalletFromTelegram",
      "outputs": [
        {
          "internalType": "address",
          "name": "",
          "type": "address"
        }
      ],
      "stateMutability": "view",
      "type": "function"
    },
    {
      "inputs": [
        {
          "internalType": "address",
          "name": "_follower",
          "type": "address"
        },
        {
          "internalType": "address",
          "name": "_following",
          "type": "address"
        }
      ],
      "name": "isFollowing",
      "outputs": [
        {
          "internalType": "bool",
          "name": "",
          "type": "bool"
        }
      ],
      "stateMutability": "view",
      "type": "function"
    },
    {
      "inputs": [
        {
          "internalType": "uint256",
          "name": "_postId",
          "type": "uint256"
        }
      ],
      "name": "likePost",
      "outputs": [],
      "stateMutability": "nonpayable",
      "type": "function"
    },
    {
      "inputs": [
        {
          "internalType": "string",
          "name": "_title",
          "type": "string"
        },
        {
          "internalType": "string",
          "name": "_description",
          "type": "string"
        },
        {
          "internalType": "uint256",
          "name": "_price",
          "type": "uint256"
        },
        {
          "internalType": "string",
          "name": "_category",
          "type": "string"
        },
        {
          "internalType": "string",
          "name": "_imageHash",
          "type": "string"
        }
      ],
      "name": "listProduct",
      "outputs": [],
      "stateMutability": "nonpayable",
      "type": "function"
    },
    {
      "inputs": [],
      "name": "nextPostId",
      "outputs": [
        {
          "internalType": "uint256",
          "name": "",
          "type": "uint256"
        }
      ],
      "stateMutability": "view",
      "type": "function"
    },
    {
      "inputs": [],
      "name": "nextProductId",
      "outputs": [
        {
          "internalType": "uint256",
          "name": "",
          "type": "uint256"
        }
      ],
      "stateMutability": "view",
      "type": "function"
    },
    {
      "inputs": [],
      "name": "nextPurchaseId",
      "outputs": [
        {
          "internalType": "uint256",
          "name": "",
          "type": "uint256"
        }
      ],
      "stateMutability": "view",
      "type": "function"
    },
    {
      "inputs": [],
      "name": "owner",
      "outputs": [
        {
          "internalType": "address",
          "name": "",
          "type": "address"
        }
      ],
      "stateMutability": "view",
      "type": "function"
    },
    {
      "inputs": [],
      "name": "pauseContract",
      "outputs": [],
      "stateMutability": "nonpayable",
      "type": "function"
    },
    {
      "inputs": [],
      "name": "paused",
      "outputs": [
        {
          "internalType": "bool",
          "name": "",
          "type": "bool"
        }
      ],
      "stateMutability": "view",
      "type": "function"
    },
    {
      "inputs": [],
      "name": "platformFee",
      "outputs": [
        {
          "internalType": "uint256",
          "name": "",
          "type": "uint256"
        }
      ],
      "stateMutability": "view",
      "type": "function"
    },
    {
      "inputs": [
        {
          "internalType": "uint256",
          "name": "",
          "type": "uint256"
        },
        {
          "internalType": "address",
          "name": "",
          "type": "address"
        }
      ],
      "name": "postLikes",
      "outputs": [
        {
          "internalType": "bool",
          "name": "",
          "type": "bool"
        }
      ],
      "stateMutability": "view",
      "type": "function"
    },
    {
      "inputs": [
        {
          "internalType": "uint256",
          "name": "",
          "type": "uint256"
        }
      ],
      "name": "products",
      "outputs": [
        {
          "internalType": "uint256",
          "name": "id",
          "type": "uint256"
        },
        {
          "internalType": "address",
          "name": "seller",
          "type": "address"
        },
        {
          "internalType": "string",
          "name": "title",
          "type": "string"
        },
        {
          "internalType": "string",
          "name": "description",
          "type": "string"
        },
        {
          "internalType": "uint256",
          "name": "price",
          "type": "uint256"
        },
        {
          "internalType": "string",
          "name": "category",
          "type": "string"
        },
        {
          "internalType": "string",
          "name": "imageHash",
          "type": "string"
        },
        {
          "internalType": "bool",
          "name": "isActive",
          "type": "bool"
        },
        {
          "internalType": "uint256",
          "name": "createdAt",
          "type": "uint256"
        },
        {
          "internalType": "uint256",
          "name": "totalSales",
          "type": "uint256"
        },
        {
          "internalType": "uint256",
          "name": "totalRating",
          "type": "uint256"
        },
        {
          "internalType": "uint256",
          "name": "ratingCount",
          "type": "uint256"
        }
      ],
      "stateMutability": "view",
      "type": "function"
    },
    {
      "inputs": [
        {
          "internalType": "uint256",
          "name": "_productId",
          "type": "uint256"
        }
      ],
      "name": "purchaseProduct",
      "outputs": [],
      "stateMutability": "payable",
      "type": "function"
    },
    {
      "inputs": [
        {
          "internalType": "uint256",
          "name": "",
          "type": "uint256"
        }
      ],
      "name": "purchases",
      "outputs": [
        {
          "internalType": "uint256",
          "name": "id",
          "type": "uint256"
        },
        {
          "internalType": "uint256",
          "name": "productId",
          "type": "uint256"
        },
        {
          "internalType": "address",
          "name": "buyer",
          "type": "address"
        },
        {
          "internalType": "address",
          "name": "seller",
          "type": "address"
        },
        {
          "internalType": "uint256",
          "name": "amount",
          "type": "uint256"
        },
        {
          "internalType": "uint256",
          "name": "timestamp",
          "type": "uint256"
        },
        {
          "internalType": "bool",
          "name": "isDelivered",
          "type": "bool"
        },
        {
          "internalType": "bool",
          "name": "isRefunded",
          "type": "bool"
        },
        {
          "internalType": "uint8",
          "name": "rating",
          "type": "uint8"
        },
        {
          "internalType": "string",
          "name": "review",
          "type": "string"
        }
      ],
      "stateMutability": "view",
      "type": "function"
    },
    {
      "inputs": [
        {
          "internalType": "uint256",
          "name": "_purchaseId",
          "type": "uint256"
        },
        {
          "internalType": "uint8",
          "name": "_rating",
          "type": "uint8"
        },
        {
          "internalType": "string",
          "name": "_review",
          "type": "string"
        }
      ],
      "name": "rateProduct",
      "outputs": [],
      "stateMutability": "nonpayable",
      "type": "function"
    },
    {
      "inputs": [
        {
          "internalType": "string",
          "name": "_telegramId",
          "type": "string"
        },
        {
          "internalType": "string",
          "name": "_username",
          "type": "string"
        },
        {
          "internalType": "string",
          "name": "_profileHash",
          "type": "string"
        }
      ],
      "name": "registerUser",
      "outputs": [],
      "stateMutability": "nonpayable",
      "type": "function"
    },
    {
      "inputs": [],
      "name": "renounceOwnership",
      "outputs": [],
      "stateMutability": "nonpayable",
      "type": "function"
    },
    {
      "inputs": [
        {
          "internalType": "address",
          "name": "_recipient",
          "type": "address"
        }
      ],
      "name": "setFeeRecipient",
      "outputs": [],
      "stateMutability": "nonpayable",
      "type": "function"
    },
    {
      "inputs": [
        {
          "internalType": "uint256",
          "name": "_fee",
          "type": "uint256"
        }
      ],
      "name": "setPlatformFee",
      "outputs": [],
      "stateMutability": "nonpayable",
      "type": "function"
    },
    {
      "inputs": [
        {
          "internalType": "uint256",
          "name": "",
          "type": "uint256"
        }
      ],
      "name": "socialPosts",
      "outputs": [
        {
          "internalType": "uint256",
          "name": "id",
          "type": "uint256"
        },
        {
          "internalType": "address",
          "name": "author",
          "type": "address"
        },
        {
          "internalType": "uint256",
          "name": "productId",
          "type": "uint256"
        },
        {
          "internalType": "string",
          "name": "content",
          "type": "string"
        },
        {
          "internalType": "uint256",
          "name": "likes",
          "type": "uint256"
        },
        {
          "internalType": "uint256",
          "name": "shares",
          "type": "uint256"
        },
        {
          "internalType": "uint256",
          "name": "timestamp",
          "type": "uint256"
        },
        {
          "internalType": "bool",
          "name": "isActive",
          "type": "bool"
        }
      ],
      "stateMutability": "view",
      "type": "function"
    },
    {
      "inputs": [
        {
          "internalType": "string",
          "name": "",
          "type": "string"
        }
      ],
      "name": "telegramToWallet",
      "outputs": [
        {
          "internalType": "address",
          "name": "",
          "type": "address"
        }
      ],
      "stateMutability": "view",
      "type": "function"
    },
    {
      "inputs": [
        {
          "internalType": "address",
          "name": "newOwner",
          "type": "address"
        }
      ],
      "name": "transferOwnership",
      "outputs": [],
      "stateMutability": "nonpayable",
      "type": "function"
    },
    {
      "inputs": [],
      "name": "unpauseContract",
      "outputs": [],
      "stateMutability": "nonpayable",
      "type": "function"
    },
    {
      "inputs": [
        {
          "internalType": "address",
          "name": "",
          "type": "address"
        },
        {
          "internalType": "uint256",
          "name": "",
          "type": "uint256"
        }
      ],
      "name": "userPosts",
      "outputs": [
        {
          "internalType": "uint256",
          "name": "",
          "type": "uint256"
        }
      ],
      "stateMutability": "view",
      "type": "function"
    },
    {
      "inputs": [
        {
          "internalType": "address",
          "name": "",
          "type": "address"
        },
        {
          "internalType": "uint256",
          "name": "",
          "type": "uint256"
        }
      ],
      "name": "userProducts",
      "outputs": [
        {
          "internalType": "uint256",
          "name": "",
          "type": "uint256"
        }
      ],
      "stateMutability": "view",
      "type": "function"
    },
    {
      "inputs": [
        {
          "internalType": "address",
          "name": "",
          "type": "address"
        },
        {
          "internalType": "uint256",
          "name": "",
          "type": "uint256"
        }
      ],
      "name": "userPurchases",
      "outputs": [
        {
          "internalType": "uint256",
          "name": "",
          "type": "uint256"
        }
      ],
      "stateMutability": "view",
      "type": "function"
    },
    {
      "inputs": [
        {
          "internalType": "address",
          "name": "",
          "type": "address"
        }
      ],
      "name": "users",
      "outputs": [
        {
          "internalType": "address",
          "name": "wallet",
          "type": "address"
        },
        {
          "internalType": "string",
          "name": "telegramId",
          "type": "string"
        },
        {
          "internalType": "string",
          "name": "username",
          "type": "string"
        },
        {
          "internalType": "string",
          "name": "profileHash",
          "type": "string"
        },
        {
          "internalType": "uint256",
          "name": "totalPurchases",
          "type": "uint256"
        },
        {
          "internalType": "uint256",
          "name": "totalSales",
          "type": "uint256"
        },
        {
          "internalType": "uint256",
          "name": "reputation",
          "type": "uint256"
        },
        {
          "internalType": "bool",
          "name": "isVerified",
          "type": "bool"
        },
        {
          "internalType": "uint256",
          "name": "joinedAt",
          "type": "uint256"
        }
      ],
      "stateMutability": "view",
      "type": "function"
    },
    {
      "inputs": [
        {
          "internalType": "address",
          "name": "_user",
          "type": "address"
        }
      ],
      "name": "verifyUser",
      "outputs": [],
      "stateMutability": "nonpayable",
      "type": "function"
    },
    {
      "stateMutability": "payable",
      "type": "receive"
    }
  ],
  "bytecode": "0x60806040526001600e556001600f55600160105560fa6011553480156200002557600080fd5b50600160005533806200005257604051631e4fbdf760e01b81526000600482015260240160405180910390fd5b6200005d8162000064565b50620000b6565b600180546001600160a01b038381166001600160a01b0319831681179093556040519116919082907f8be0079c531659141344cd1fd0a4f28419497f9722a3daafe3b4186f6b6457e090600090a35050565b61334d80620000c66000396000f3fe6080604052600436106102605760003560e01c80638726a60f11610144578063ca1f0cad116100b6578063db2e21bc1161007a578063db2e21bc146107c3578063e74b981b146107d8578063eb2a1132146107f8578063ebd009d314610818578063f2fde38b14610838578063fee7f53b1461085857600080fd5b8063ca1f0cad146106f7578063ce9ae00114610732578063cf2c03341461076d578063d637dcfa1461078d578063d73792a9146107ad57600080fd5b80639b5cde1f116101085780639b5cde1f14610619578063a70806f71461064d578063a87430ba1461066d578063a999148d146106a2578063b33712c5146106c2578063c6e5d8f6146106d757600080fd5b80638726a60f1461054d5780638da5cb5b1461056d5780638ff057d11461058b57806399ec3a42146105cc5780639a2194a9146105ec57600080fd5b806346904840116101dd578063715018a6116101a1578063715018a61461046a578063725009d31461047f5780637827f81f1461049f5780637acc0b20146104bf5780638064d149146104f75780638392fe311461051757600080fd5b806346904840146103bb5780634d813120146103f35780634de91a63146104135780635c09bd98146104295780635c975abb1461043f57600080fd5b806335ad1ef01161022457806335ad1ef01461031e578063387e059b1461033e57806338e76a03146103735780633d52788314610386578063439766ce146103a657600080fd5b8063030f8f9e1461026c57806312e8e2c3146102a257806323b4a7a3146102c457806326232a2e146102e857806326853c9b146102fe57600080fd5b3661026757005b600080fd5b34801561027857600080fd5b5061028c610287366004612a06565b610878565b6040516102999190612a28565b60405180910390f35b3480156102ae57600080fd5b506102c26102bd366004612a75565b6108ee565b005b3480156102d057600080fd5b506102da600f5481565b604051908152602001610299565b3480156102f457600080fd5b506102da60115481565b34801561030a57600080fd5b5061028c610319366004612a06565b610941565b34801561032a57600080fd5b506102c2610339366004612b31565b6109b5565b34801561034a57600080fd5b5061035e610359366004612a75565b610bdc565b60408051928352602083019190915201610299565b6102c2610381366004612a75565b610ee4565b34801561039257600080fd5b506102da6103a1366004612b90565b6113ee565b3480156103b257600080fd5b506102c261141f565b3480156103c757600080fd5b506012546103db906001600160a01b031681565b6040516001600160a01b039091168152602001610299565b3480156103ff57600080fd5b506102c261040e366004612a06565b611431565b34801561041f57600080fd5b506102da600e5481565b34801561043557600080fd5b506102da60105481565b34801561044b57600080fd5b50600154600160a01b900460ff165b6040519015158152602001610299565b34801561047657600080fd5b506102c2611460565b34801561048b57600080fd5b506102c261049a366004612a75565b611472565b3480156104ab57600080fd5b506102c26104ba366004612bba565b6115f1565b3480156104cb57600080fd5b506104df6104da366004612a75565b611895565b6040516102999c9b9a99989796959493929190612cc1565b34801561050357600080fd5b506102da610512366004612b90565b611b1e565b34801561052357600080fd5b50610537610532366004612a75565b611b3a565b6040516102999a99989796959493929190612d62565b34801561055957600080fd5b506103db610568366004612b90565b611c2e565b34801561057957600080fd5b506001546001600160a01b03166103db565b34801561059757600080fd5b506103db6105a6366004612dd6565b80516020818301810180516005825292820191909301209152546001600160a01b031681565b3480156105d857600080fd5b5061045a6105e7366004612e13565b611c66565b3480156105f857600080fd5b5061060c610607366004612a06565b611c96565b6040516102999190612e46565b34801561062557600080fd5b50610639610634366004612a75565b611d01565b604051610299989796959493929190612e7e565b34801561065957600080fd5b506102c2610668366004612a06565b611dda565b34801561067957600080fd5b5061068d610688366004612a06565b611fab565b60405161029999989796959493929190612eda565b3480156106ae57600080fd5b506103db6106bd366004612dd6565b612199565b3480156106ce57600080fd5b506102c26121ca565b3480156106e357600080fd5b5061060c6106f2366004612a06565b6121da565b34801561070357600080fd5b5061045a610712366004612f57565b600a60209081526000928352604080842090915290825290205460ff1681565b34801561073e57600080fd5b5061045a61074d366004612e13565b600b60209081526000928352604080842090915290825290205460ff1681565b34801561077957600080fd5b506102da610788366004612b90565b612244565b34801561079957600080fd5b506102c26107a8366004612f7a565b612260565b3480156107b957600080fd5b506102da61271081565b3480156107cf57600080fd5b506102c261250b565b3480156107e457600080fd5b506102c26107f3366004612a06565b61254f565b34801561080457600080fd5b506102c2610813366004612ff8565b612579565b34801561082457600080fd5b506103db610833366004612b90565b61278f565b34801561084457600080fd5b506102c2610853366004612a06565b6127ab565b34801561086457600080fd5b5061060c610873366004612a06565b6127e6565b6001600160a01b0381166000908152600d60209081526040918290208054835181840281018401909452808452606093928301828280156108e257602002820191906000526020600020905b81546001600160a01b031681526001909101906020018083116108c4575b50505050509050919050565b6108f6612850565b6103e881111561093c5760405162461bcd60e51b815260206004820152600c60248201526b08ccaca40e8dede40d0d2ced60a31b60448201526064015b60405180910390fd5b601155565b6001600160a01b0381166000908152600c60209081526040918290208054835181840281018401909452808452606093928301828280156108e2576020028201919060005260206000209081546001600160a01b031681526001909101906020018083116108c45750505050509050919050565b336000908152600460205260409020546001600160a01b03166109ea5760405162461bcd60e51b81526004016109339061303f565b60018260ff1610158015610a02575060058260ff1611155b610a435760405162461bcd60e51b8152602060048201526012602482015271526174696e67206d75737420626520312d3560701b6044820152606401610933565b600083815260036020526040902060028101546001600160a01b03163314610aa15760405162461bcd60e51b81526020600482015260116024820152704e6f7420796f757220707572636861736560781b6044820152606401610933565b600681015462010000900460ff1615610aec5760405162461bcd60e51b815260206004820152600d60248201526c105b1c9958591e481c985d1959609a1b6044820152606401610933565b60068101805462ff000019166201000060ff86160217905560078101610b1283826130f5565b5060018101546000908152600260205260408120600a81018054919260ff871692610b3e9084906131cb565b9091555050600b81018054906000610b55836131de565b909155505060038201546001600160a01b03166000908152600460205260408120600601805460ff87169290610b8c9084906131cb565b909155505060018201546040513391907f3027cc1c240c4db4d504e078d59168ea905ff9f40b9ed644a0f23494fa4cfb6a90610bcd908890889042906131f7565b60405180910390a35050505050565b60008181526002602081815260408084208151610180810183528154815260018201546001600160a01b03169381019390935292830180548594859493909290840191610c289061306c565b80601f0160208091040260200160405190810160405280929190818152602001828054610c549061306c565b8015610ca15780601f10610c7657610100808354040283529160200191610ca1565b820191906000526020600020905b815481529060010190602001808311610c8457829003601f168201915b50505050508152602001600382018054610cba9061306c565b80601f0160208091040260200160405190810160405280929190818152602001828054610ce69061306c565b8015610d335780601f10610d0857610100808354040283529160200191610d33565b820191906000526020600020905b815481529060010190602001808311610d1657829003601f168201915b5050505050815260200160048201548152602001600582018054610d569061306c565b80601f0160208091040260200160405190810160405280929190818152602001828054610d829061306c565b8015610dcf5780601f10610da457610100808354040283529160200191610dcf565b820191906000526020600020905b815481529060010190602001808311610db257829003601f168201915b50505050508152602001600682018054610de89061306c565b80601f0160208091040260200160405190810160405280929190818152602001828054610e149061306c565b8015610e615780601f10610e3657610100808354040283529160200191610e61565b820191906000526020600020905b815481529060010190602001808311610e4457829003601f168201915b5050509183525050600782015460ff16151560208201526008820154604082015260098201546060820152600a8201546080820152600b9091015460a090910152610160810151909150600003610ebe5750600093849350915050565b806101600151816101400151610ed49190613223565b8161016001519250925050915091565b336000908152600460205260409020546001600160a01b0316610f195760405162461bcd60e51b81526004016109339061303f565b80600081118015610f2b5750600e5481105b610f705760405162461bcd60e51b8152602060048201526016602482015275141c9bd91d58dd08191bd95cc81b9bdd08195e1a5cdd60521b6044820152606401610933565b610f7861287d565b610f806128a7565b6000828152600260205260409020600781015460ff16610fd75760405162461bcd60e51b815260206004820152601260248201527150726f64756374206e6f742061637469766560701b6044820152606401610933565b6001810154336001600160a01b03909116036110355760405162461bcd60e51b815260206004820152601b60248201527f43616e6e6f742062757920796f7572206f776e2070726f6475637400000000006044820152606401610933565b806004015434146110885760405162461bcd60e51b815260206004820152601860248201527f496e636f7272656374207061796d656e7420616d6f756e7400000000000000006044820152606401610933565b600f805460009182611099836131de565b919050559050604051806101400160405280828152602001858152602001336001600160a01b031681526020018360010160009054906101000a90046001600160a01b03166001600160a01b03168152602001348152602001428152602001600015158152602001600015158152602001600060ff1681526020016040518060200160405280600081525081525060036000838152602001908152602001600020600082015181600001556020820151816001015560408201518160020160006101000a8154816001600160a01b0302191690836001600160a01b0316021790555060608201518160030160006101000a8154816001600160a01b0302191690836001600160a01b031602179055506080820151816004015560a0820151816005015560c08201518160060160006101000a81548160ff02191690831515021790555060e08201518160060160016101000a81548160ff0219169083151502179055506101008201518160060160026101000a81548160ff021916908360ff16021790555061012082015181600701908161123491906130f5565b5050336000908152600860209081526040822080546001810182559083529082200183905560098401805492509061126b836131de565b909155505033600090815260046020819052604082200180549161128e836131de565b909155505060018201546001600160a01b031660009081526004602052604081206005018054916112be836131de565b91905055506000612710601154346112d69190613245565b6112e09190613223565b905060006112ee823461325c565b905060008211801561130a57506012546001600160a01b031615155b1561134b576012546040516001600160a01b039091169083156108fc029084906000818181858888f19350505050158015611349573d6000803e3d6000fd5b505b60018401546040516001600160a01b039091169082156108fc029083906000818181858888f19350505050158015611387573d6000803e3d6000fd5b506001840154604080516001600160a01b03909216825234602083015242908201523390879085907fe922c7e0e51d4898df5c35ce330fa87a26d5a4dee73c44676a135d464565756e9060600160405180910390a4505050506113ea6001600055565b5050565b6007602052816000526040600020818154811061140a57600080fd5b90600052602060002001600091509150505481565b611427612850565b61142f6128d2565b565b611439612850565b6001600160a01b03166000908152600460205260409020600701805460ff19166001179055565b611468612850565b61142f6000612932565b336000908152600460205260409020546001600160a01b03166114a75760405162461bcd60e51b81526004016109339061303f565b6000811180156114b8575060105481105b6114fa5760405162461bcd60e51b8152602060048201526013602482015272141bdcdd08191bd95cc81b9bdd08195e1a5cdd606a1b6044820152606401610933565b6000818152600a6020908152604080832033845290915290205460ff16156115545760405162461bcd60e51b815260206004820152600d60248201526c105b1c9958591e481b1a5ad959609a1b6044820152606401610933565b6000818152600a602090815260408083203384528252808320805460ff1916600117905583835260069091528120600401805491611591836131de565b909155505060008181526006602052604090819020600401549051339183917fc68bd475c555ca6b02364874ce853625a8f9dccd3496d815d4003fa0951f1fcd916115e6914290918252602082015260400190565b60405180910390a350565b336000908152600460205260409020546001600160a01b03166116265760405162461bcd60e51b81526004016109339061303f565b61162e6128a7565b60008551116116705760405162461bcd60e51b815260206004820152600e60248201526d151a5d1b19481c995c5d5a5c995960921b6044820152606401610933565b600083116116c05760405162461bcd60e51b815260206004820152601c60248201527f5072696365206d7573742062652067726561746572207468616e2030000000006044820152606401610933565b600e8054600091826116d1836131de565b919050559050604051806101800160405280828152602001336001600160a01b0316815260200187815260200186815260200185815260200184815260200183815260200160011515815260200142815260200160008152602001600081526020016000815250600260008381526020019081526020016000206000820151816000015560208201518160010160006101000a8154816001600160a01b0302191690836001600160a01b03160217905550604082015181600201908161179791906130f5565b50606082015160038201906117ac90826130f5565b506080820151600482015560a082015160058201906117cb90826130f5565b5060c082015160068201906117e090826130f5565b5060e08201516007828101805460ff19169215159290921790915561010083015160088301556101208301516009830155610140830151600a83015561016090920151600b9091015533600081815260209283526040808220805460018101825590835293909120909201839055905182907f26e357cb5e568cbc778488793aabe60acf61c4cf838e381a9e99b55af5feccb390611885908a9089908990429061326f565b60405180910390a3505050505050565b600260208190526000918252604090912080546001820154928201805491936001600160a01b031692916118c89061306c565b80601f01602080910402602001604051908101604052809291908181526020018280546118f49061306c565b80156119415780601f1061191657610100808354040283529160200191611941565b820191906000526020600020905b81548152906001019060200180831161192457829003601f168201915b5050505050908060030180546119569061306c565b80601f01602080910402602001604051908101604052809291908181526020018280546119829061306c565b80156119cf5780601f106119a4576101008083540402835291602001916119cf565b820191906000526020600020905b8154815290600101906020018083116119b257829003601f168201915b5050505050908060040154908060050180546119ea9061306c565b80601f0160208091040260200160405190810160405280929190818152602001828054611a169061306c565b8015611a635780601f10611a3857610100808354040283529160200191611a63565b820191906000526020600020905b815481529060010190602001808311611a4657829003601f168201915b505050505090806006018054611a789061306c565b80601f0160208091040260200160405190810160405280929190818152602001828054611aa49061306c565b8015611af15780601f10611ac657610100808354040283529160200191611af1565b820191906000526020600020905b815481529060010190602001808311611ad457829003601f168201915b505050600784015460088501546009860154600a870154600b90970154959660ff9093169591945092508c565b6009602052816000526040600020818154811061140a57600080fd5b600360208190526000918252604090912080546001820154600283015493830154600484015460058501546006860154600787018054969895976001600160a01b039687169795909616959394929360ff8084169461010085048216946201000090049091169290611bab9061306c565b80601f0160208091040260200160405190810160405280929190818152602001828054611bd79061306c565b8015611c245780601f10611bf957610100808354040283529160200191611c24565b820191906000526020600020905b815481529060010190602001808311611c0757829003601f168201915b505050505090508a565b600d6020528160005260406000208181548110611c4a57600080fd5b6000918252602090912001546001600160a01b03169150829050565b6001600160a01b038083166000908152600b602090815260408083209385168352929052205460ff165b92915050565b6001600160a01b0381166000908152600960209081526040918290208054835181840281018401909452808452606093928301828280156108e257602002820191906000526020600020905b815481526020019060010190808311611ce25750505050509050919050565b600660205260009081526040902080546001820154600283015460038401805493946001600160a01b0390931693919291611d3b9061306c565b80601f0160208091040260200160405190810160405280929190818152602001828054611d679061306c565b8015611db45780601f10611d8957610100808354040283529160200191611db4565b820191906000526020600020905b815481529060010190602001808311611d9757829003601f168201915b505050506004830154600584015460068501546007909501549394919390925060ff1688565b336000908152600460205260409020546001600160a01b0316611e0f5760405162461bcd60e51b81526004016109339061303f565b336001600160a01b03821603611e605760405162461bcd60e51b815260206004820152601660248201527521b0b73737ba103337b63637bb903cb7bab939b2b63360511b6044820152606401610933565b6001600160a01b0381811660009081526004602052604090205416611e975760405162461bcd60e51b81526004016109339061303f565b336000908152600b602090815260408083206001600160a01b038516845290915290205460ff1615611eff5760405162461bcd60e51b8152602060048201526011602482015270416c726561647920666f6c6c6f77696e6760781b6044820152606401610933565b336000818152600b602090815260408083206001600160a01b038616808552908352818420805460ff19166001908117909155600c8452828520805480830182559086528486200180546001600160a01b03199081168817909155868652600d8552838620805492830181558652948490200180549094168117909355514281529192917f53e62c84b456cda6228f6c0acd671088271c8bb9627a72d3f8c3d631c847372491016115e6565b600460205260009081526040902080546001820180546001600160a01b039092169291611fd79061306c565b80601f01602080910402602001604051908101604052809291908181526020018280546120039061306c565b80156120505780601f1061202557610100808354040283529160200191612050565b820191906000526020600020905b81548152906001019060200180831161203357829003601f168201915b5050505050908060020180546120659061306c565b80601f01602080910402602001604051908101604052809291908181526020018280546120919061306c565b80156120de5780601f106120b3576101008083540402835291602001916120de565b820191906000526020600020905b8154815290600101906020018083116120c157829003601f168201915b5050505050908060030180546120f39061306c565b80601f016020809104026020016040519081016040528092919081815260200182805461211f9061306c565b801561216c5780601f106121415761010080835404028352916020019161216c565b820191906000526020600020905b81548152906001019060200180831161214f57829003601f168201915b505050506004830154600584015460068501546007860154600890960154949592949193509160ff169089565b60006005826040516121ab91906132ac565b908152604051908190036020019020546001600160a01b031692915050565b6121d2612850565b61142f612984565b6001600160a01b0381166000908152600860209081526040918290208054835181840281018401909452808452606093928301828280156108e25760200282019190600052602060002090815481526020019060010190808311611ce25750505050509050919050565b6008602052816000526040600020818154811061140a57600080fd5b60008351116122a85760405162461bcd60e51b815260206004820152601460248201527315195b1959dc985b481251081c995c5d5a5c995960621b6044820152606401610933565b336000908152600460205260409020546001600160a01b03161561230e5760405162461bcd60e51b815260206004820152601760248201527f5573657220616c726561647920726567697374657265640000000000000000006044820152606401610933565b60006001600160a01b031660058460405161232991906132ac565b908152604051908190036020019020546001600160a01b03161461238f5760405162461bcd60e51b815260206004820152601860248201527f54656c656772616d20494420616c7265616479207573656400000000000000006044820152606401610933565b60408051610120810182523380825260208083018781528385018790526060840186905260006080850181905260a08501819052606460c086015260e08501819052426101008601529283526004909152929020815181546001600160a01b0319166001600160a01b039091161781559151909190600182019061241390826130f5565b506040820151600282019061242890826130f5565b506060820151600382019061243d90826130f5565b506080820151816004015560a0820151816005015560c0820151816006015560e08201518160070160006101000a81548160ff02191690831515021790555061010082015181600801559050503360058460405161249b91906132ac565b90815260405190819003602001812080546001600160a01b03939093166001600160a01b03199093169290921790915533907fb43e07573ffd613ee4cb14f22ebd42b902fb524682771d8e82932bd48bcda247906124fe908690869042906132c8565b60405180910390a2505050565b612513612850565b6001546040516001600160a01b03909116904780156108fc02916000818181858888f1935050505015801561254c573d6000803e3d6000fd5b50565b612557612850565b601280546001600160a01b0319166001600160a01b0392909216919091179055565b336000908152600460205260409020546001600160a01b03166125ae5760405162461bcd60e51b81526004016109339061303f565b816000811180156125c05750600e5481105b6126055760405162461bcd60e51b8152602060048201526016602482015275141c9bd91d58dd08191bd95cc81b9bdd08195e1a5cdd60521b6044820152606401610933565b60008251116126495760405162461bcd60e51b815260206004820152601060248201526f10dbdb9d195b9d081c995c5d5a5c995960821b6044820152606401610933565b601080546000918261265a836131de565b9091555060408051610100810182528281523360208083019182528284018981526060840189815260006080860181905260a086018190524260c0870152600160e0870181905288825260069094529590952084518155925191830180546001600160a01b0319166001600160a01b039093169290921790915551600282015591519293509160038201906126ef90826130f5565b506080820151600482015560a0820151600582015560c0820151600682015560e0909101516007909101805460ff1916911515919091179055336000818152600960209081526040808320805460018101825590845291909220018390555182907f85d59cf0fe748f1bb109700ae733d57115eb478d13320a4cc64af598d065306e90612781908890889042906132fe565b60405180910390a350505050565b600c6020528160005260406000208181548110611c4a57600080fd5b6127b3612850565b6001600160a01b0381166127dd57604051631e4fbdf760e01b815260006004820152602401610933565b61254c81612932565b6001600160a01b0381166000908152600760209081526040918290208054835181840281018401909452808452606093928301828280156108e25760200282019190600052602060002090815481526020019060010190808311611ce25750505050509050919050565b6001546001600160a01b0316331461142f5760405163118cdaa760e01b8152336004820152602401610933565b6002600054036128a057604051633ee5aeb560e01b815260040160405180910390fd5b6002600055565b600154600160a01b900460ff161561142f5760405163d93c066560e01b815260040160405180910390fd5b6128da6128a7565b6001805460ff60a01b1916600160a01b1790557f62e78cea01bee320cd4e420270b5ea74000d11b0c9f74754ebdbfc544b05a2586129153390565b6040516001600160a01b03909116815260200160405180910390a1565b600180546001600160a01b038381166001600160a01b0319831681179093556040519116919082907f8be0079c531659141344cd1fd0a4f28419497f9722a3daafe3b4186f6b6457e090600090a35050565b61298c6129c0565b6001805460ff60a01b191690557f5db9ee0a495bf2e6ff9c91a7834c1ba4fdd244a5e8aa4e537bd38aeae4b073aa33612915565b600154600160a01b900460ff1661142f57604051638dfc202b60e01b815260040160405180910390fd5b80356001600160a01b0381168114612a0157600080fd5b919050565b600060208284031215612a1857600080fd5b612a21826129ea565b9392505050565b6020808252825182820181905260009190848201906040850190845b81811015612a695783516001600160a01b031683529284019291840191600101612a44565b50909695505050505050565b600060208284031215612a8757600080fd5b5035919050565b634e487b7160e01b600052604160045260246000fd5b600082601f830112612ab557600080fd5b813567ffffffffffffffff80821115612ad057612ad0612a8e565b604051601f8301601f19908116603f01168101908282118183101715612af857612af8612a8e565b81604052838152866020858801011115612b1157600080fd5b836020870160208301376000602085830101528094505050505092915050565b600080600060608486031215612b4657600080fd5b83359250602084013560ff81168114612b5e57600080fd5b9150604084013567ffffffffffffffff811115612b7a57600080fd5b612b8686828701612aa4565b9150509250925092565b60008060408385031215612ba357600080fd5b612bac836129ea565b946020939093013593505050565b600080600080600060a08688031215612bd257600080fd5b853567ffffffffffffffff80821115612bea57600080fd5b612bf689838a01612aa4565b96506020880135915080821115612c0c57600080fd5b612c1889838a01612aa4565b9550604088013594506060880135915080821115612c3557600080fd5b612c4189838a01612aa4565b93506080880135915080821115612c5757600080fd5b50612c6488828901612aa4565b9150509295509295909350565b60005b83811015612c8c578181015183820152602001612c74565b50506000910152565b60008151808452612cad816020860160208601612c71565b601f01601f19169290920160200192915050565b8c81526001600160a01b038c16602082015261018060408201819052600090612cec8382018e612c95565b90508281036060840152612d00818d612c95565b90508a608084015282810360a0840152612d1a818b612c95565b905082810360c0840152612d2e818a612c95565b97151560e0840152505061010081019490945261012084019290925261014083015261016090910152979650505050505050565b8a8152602081018a90526001600160a01b038981166040830152881660608201526080810187905260a0810186905284151560c082015283151560e082015260ff83166101008201526101406101208201819052600090612dc583820185612c95565b9d9c50505050505050505050505050565b600060208284031215612de857600080fd5b813567ffffffffffffffff811115612dff57600080fd5b612e0b84828501612aa4565b949350505050565b60008060408385031215612e2657600080fd5b612e2f836129ea565b9150612e3d602084016129ea565b90509250929050565b6020808252825182820181905260009190848201906040850190845b81811015612a6957835183529284019291840191600101612e62565b8881526001600160a01b03881660208201526040810187905261010060608201819052600090612eb083820189612c95565b9150508560808301528460a08301528360c083015282151560e08301529998505050505050505050565b6001600160a01b038a16815261012060208201819052600090612eff8382018c612c95565b90508281036040840152612f13818b612c95565b90508281036060840152612f27818a612c95565b6080840198909852505060a081019490945260c0840192909252151560e083015261010090910152949350505050565b60008060408385031215612f6a57600080fd5b82359150612e3d602084016129ea565b600080600060608486031215612f8f57600080fd5b833567ffffffffffffffff80821115612fa757600080fd5b612fb387838801612aa4565b94506020860135915080821115612fc957600080fd5b612fd587838801612aa4565b93506040860135915080821115612feb57600080fd5b50612b8686828701612aa4565b6000806040838503121561300b57600080fd5b82359150602083013567ffffffffffffffff81111561302957600080fd5b61303585828601612aa4565b9150509250929050565b602080825260139082015272155cd95c881b9bdd081c9959da5cdd195c9959606a1b604082015260600190565b600181811c9082168061308057607f821691505b6020821081036130a057634e487b7160e01b600052602260045260246000fd5b50919050565b601f8211156130f057600081815260208120601f850160051c810160208610156130cd5750805b601f850160051c820191505b818110156130ec578281556001016130d9565b5050505b505050565b815167ffffffffffffffff81111561310f5761310f612a8e565b6131238161311d845461306c565b846130a6565b602080601f83116001811461315857600084156131405750858301515b600019600386901b1c1916600185901b1785556130ec565b600085815260208120601f198616915b8281101561318757888601518255948401946001909101908401613168565b50858210156131a55787850151600019600388901b60f8161c191681555b5050505050600190811b01905550565b634e487b7160e01b600052601160045260246000fd5b80820180821115611c9057611c906131b5565b6000600182016131f0576131f06131b5565b5060010190565b60ff841681526060602082015260006132136060830185612c95565b9050826040830152949350505050565b60008261324057634e487b7160e01b600052601260045260246000fd5b500490565b8082028115828204841417611c9057611c906131b5565b81810381811115611c9057611c906131b5565b6080815260006132826080830187612c95565b856020840152828103604084015261329a8186612c95565b91505082606083015295945050505050565b600082516132be818460208701612c71565b9190910192915050565b6060815260006132db6060830186612c95565b82810360208401526132ed8186612c95565b915050826040830152949350505050565b8381526060602082015260006132136060830185612c9556fea26469706673582212208b7f0f02c955dd5f75dba85720fc5068055e5d9828fb39fee36d70947a62c8ac64736f6c63430008140033",
  "linkReferences": {},
  "deployedLinkReferences": {}
}